:020000040000fa
:080000000002040000000000f2
:020000040000fa
:100400006f3c21000edf2d000e018800000000006f
:100410000c00070000572100010020000f0007001a
:10042000000020000000e000020032000000020096
:1004300000000000600e0200000000000040da0032
:100440000000fe00800520000000e00002003200f5
:10045000002020009001880000000600a102880012
:10046000800078000000eb001a003700e2804000b6
:1004700054a0b4009101ba00e280400054a0b4003e
:100480009102ba00e280400054a0b4000002eb00e8
:10049000472bde00f507b200a6018800602ce100c2
:1004a00008003a000049eb000201e80002003900b0
:1004b0003420ec0002f0a0008301e900f9ff3e00c7
:1004c000040037006128e100010032000082eb00e7
:1004d000040007001101ba000200e000e3ff3a0047
:1004e0000000060004d0a300e20f49001c00390000
:1004f000810278003549ba000201e80002003900a3
:100500003420ec0002f0a0008301e9000f0032006b
:100510002549ba000201e800020039003420ec004d
:1005200002f0a0008301e900080032000400e000ae
:100530000600320015c9ba000201e80002003900c5
:100540003420ec0002f0a0008301e9008180e80083
:1005500054a0b4000300e000e2ff3a0000000600ef
:100560009102ba00055978008301e900f7ff3200d3
:10057000c82ade00055978008301e900f3ff320044
:100580000400e000f1ff320011d9ba00eeff37009d
:100590000040da000000fe000a00fa008001780046
:1005a000e20f500027003e00209e8000e10f500027
:1005b00008003200802320000000e0000500320027
:1005c00004232000252320004623200080017800fa
:1005d00004003700042220002522200046222000ab
:1005e00083222000144090000004e0000400350045
:1005f0008009eb00144090000074a00010429800a5
:10060000154090000028a30003003a001540900018
:100610000024a000904298008001eb000600370003
:10062000154090000008a300fdff32003100fb00e0
:10063000000b78008301e800828f5100f8ff3a0038
:100640000800370030002000b0bf9f00c3bf9f00ec
:10065000d1bf9f00e2bf9f006a80570000c0da0050
:100660006fb99700020078000080fa0000000600d1
:10067000889fbe008a9fbe008c1f78008f000700f5
:100680009600330003866c006450e10024003200c1
:100690006420e100270032006150e10022003200b6
:1006a0006120e100210032008b854200eb07b100a0
:1006b0000134b800003ab8000804420089844a00b6
:1006c000013ab8000030b8008880400009014a00b3
:1006d000040033000000400081804800020149000e
:1006e0008b05e900c909dd008301700001003200bb
:1006f00013002000c814de004814dd004709de00a6
:100700001200b200c808de000884700083000700f1
:1007100001f0a1000cf0a70001f0a0007800370064
:100720006120e1007a0032000801be000200be0034
:10073000f7ff37006150e100fcff3a00740037001a
:10074000889fbe008a9fbe008c1f78005b00070058
:100750006200330003866c006450e1002e0032001a
:100760006420e100330032006150e1002f003200cc
:100770006120e1003100320085855500eb07b000b3
:100780000900200008042000050037000804440088
:1007900089844c000a0031000603430087834b0024
:1007a0000001530081815b00f8ff33000203be00ab
:1007b0000800a0000804440089844c00f6ff3900ba
:1007c000c639dd00830173000100320013002000f0
:1007d0008904d1000884d3000998a30005003200e1
:1007e0000800a7000300a0008904d1000884d300fa
:1007f0008b05e8008904d1000884d3000001eb00d8
:100800000281d2004500070001f0a1000cf0a70012
:1008100001f0a0003a0037006420e1003c00320003
:100820000801be000200be00f7ff37006120e100b2
:10083000370032006000b800f3ff370000002000ee
:1008400001f82700f0ff3700f4ff2f0059003700b0
:100850000001be00720007000470a70003f0a100b1
:1008600003f8a30013003a006509b100100032003c
:10087000090035006928e100020035000100280068
:100880000000050000004000818048008502e9006a
:10089000fcff3a0000000600f88f4200050035001a
:1008a0008100d1000080d3008502e800fcff3a00ff
:1008b000000006008000eb00000005000004be0000
:1008c000570007000003be000405be000200be0082
:1008d00053000700844f7500000006000200be00b0
:1008e0006450e100050036006420e100020036009b
:1008f0000968a30001003a000800be000160a000e2
:100900004f0678004f05be004f04be0000000600f1
:10091000f0ff2f00f1ff2700f9ff370081002000d2
:10092000618055000b003d000b00200061fe2f0090
:100930000100e1001d00340082817100610164004a
:100940008904d1000884d3000000e800faff3a00cf
:10095000710020006100640003007000020060006c
:100960000900320061044400e0844c000988a500bd
:10097000050032008b05e8006808e10002003a003b
:100980008904d1000884d300f20f20000258e1004e
:1009900005003d00c75ddd00f907b20089807500e4
:1009a00008007800000006000bf827008b00780094
:1009b00000000500889fbe008a9fbe00841f78004b
:1009c000beff07004f00780011003300f0ff2f003a
:1009d000838f6c0006003b00040565000a00a70039
:1009e0000800370009f0a6001000200008003700ba
:1009f000820f5400838f5c00030039001000200038
:100a000001003e000000200009f0a7000000ea00fd
:100a10004f05be004f04be000000e00000000600cd
:100a2000c70ade00f107b200f50fb200080032007d
:100a3000e1cf4200020032000170a0002400050056
:100a4000810f700001003200040805004400050019
:100a5000810f700002003a00140005008502e900d1
:100a60000000400081c04800fcff3b000170a00076
:100a700024000500881f7800000478005001be00a3
:100a80004000be0004004000858048000601490087
:100a900087814900009cbe000294be000400e10072
:100aa0000588e1000690e1000798e10002003100ae
:100ab000680044001008e8004f04780000000600b9
:100ac000f4874700889fbe008a9fbe008c9fbe00af
:100ad0008e1f78000205be000004be00d4b79f0040
:100ae000e5b79f00f6b79f0087bf9f000000eb00af
:100af000c0b79f00b0b79f00a0b79f0090b79f00fe
:100b000080b79f000d042000bfb097004fb0970042
:100b1000000140000000e0000f003d004f08de0033
:100b200000007100c0b79f009e00070001003d005b
:100b300012002000a100070001003d00120020006b
:100b4000a6000700b1000700b60007000f00400034
:100b5000c8ff0700220037004f08de0000067100c2
:100b6000ccb79f008f00070001003d00120020005d
:100b70009200070001003d001200200097000700ce
:100b8000a20007000fb297009fb297002fb3970003
:100b9000bfb39700a90007000000520081805a00ef
:100ba00002015b0083815b0080b79f0091b79f00cb
:100bb000a2b79f00b3b79f000007eb009f0007009c
:100bc0000020e10001a8e10002b0e10003b8e1006b
:100bd000010031001e0020000e005600c0b79f002b
:100be0004fb297000400e00007003500100020001d
:100bf000010020006011b8000804700089847000b2
:100c00000a0571008b8571008d06e900beff3a0070
:100c10000400e00003003d00820007000f004000d8
:100c200094ff07004fa897000000e00004003a007e
:100c30000fb497009fb497002fb59700bfb59700ea
:100c4000940007004f0778004f06be004f05be0016
:100c50004f04be004f01b10000000600881f78005d
:100c600018002000881f780095ff07008f87e90093
:100c70004f04780000000600801feb0090ff070083
:100c80008f87e90000000600889fbe008a9fbe0093
:100c90008c1f78006e00070007003d0073000700fe
:100ca000e00f5b00e08f5b0007003d0032000700b3
:100cb0000006eb00040037003400070002003d008e
:100cc0002a0007001c00200072000700e3ff070055
:100cd0000203be000002be000c00e0000100320072
:100ce000220007000400be000601be004f06780087
:100cf0004f05be004f04be0000000600889fbe00e6
:100d00008a9fbe008c1f78005100070005003d003f
:100d100056000700e00f5b00e08f5b0006003d001f
:100d2000040037001900070003003d006000b80010
:100d30006011b8001000070056000700ceff070042
:100d40000203be000002be000c00e0000100320001
:100d5000060007000400be000601be004f06780032
:100d60004f05be004f04be00000006006000b80042
:100d70006011b8000000370004025000858258005e
:100d80000603590087835900000006000006eb00a7
:100d9000e00f5200e08f5a00e00f5b00e08f5b0035
:100da000000006000180400090b79f000001eb00aa
:100db0008fb097000100e000000006000200700004
:100dc00090b79f000180400080b79f000001eb00ba
:100dd000ffa897000100e00000000600020070007c
:100de00080b79f00018040006faa9700cf20de00ef
:100df00001007000f0af9f000402420025000700d0
:100e00004f18de000002720000000600e4af9f00f1
:100e10000804440089844c000a054d008b854d0070
:100e2000000006003fb29700cfb297005fb3970073
:100e3000efb3970000fe2f00000006003fb09700c0
:100e4000cfb097005fb19700efb1970000000600a8
:100e50000205be000004be00e00f5000e08f580005
:100e6000e00f5900e08f5900000006006000b80054
:100e70006011b80008045000898458000a05590020
:100e80008b8559001c002000e00f5200e08f5a00b3
:100e9000000006000800be000a01be0000000600b7
:100ea0000c00fa00889fbe0000047800cfb09700c5
:100eb000f0ff2700d0bf9f008004eb0099bf9f0088
:100ec00088bf9f00a8bf9f00200c2000b0bf9f00dc
:100ed0007881570070805700990007000fb897007d
:100ee000094878000fb897000804500008007800ff
:100ef0004f04be000080fa00000006000000fa0067
:100f0000cfb8970068815700603a21008c00070035
:100f10000080fa0000000600889fbe0000017800f3
:100f200001047800b10090000118a3003d003200d8
:100f30000198a30003003a00180090000000e000b0
:100f400038003a000190a000310498008204780033
:100f5000f90fb200180090000000e00002003a0013
:100f600028009000000c7800ea8f540006003a0038
:100f7000380090000078a30003003a008800780051
:100f8000d0002000e4ff0700980090005800900077
:100f9000808f50000b0032000100e8001004980020
:100fa0001800780009587800000c780011c0b300d0
:100fb000203c210001487800ea8f540006003200ee
:100fc00019003700880078000940780019000700f0
:100fd0008004780014003700380090000088a300d7
:100fe0001100320018019000a80090004800900005
:100ff00069fd070098009000810f50000400320046
:10100000380090000003b300300498008084eb00a7
:101010000000eb001004980028009000000c7800fd
:10102000010037008084eb00090078004f04be0007
:10103000000006000200fa00889fbe00a0ff9f008b
:1010400001047800b1009000810478000904b20026
:10105000020032000000fb00360037000118a30038
:1010600005003a000103b300310498001904980008
:101070000080eb002f003700580090000000e000d7
:1010800006003a004800900012002000e680570059
:1010900041fd070019049800240037002800900043
:1010a0000000e00008003a00e03b21002004980026
:1010b000000c7800200020005004980010049800d4
:1010c0000130a0003104980018019000a8009000a1
:1010d0004800900030fd070028009000000c7800c8
:1010e0000080eb001004980018007800aff897001b
:1010f00001587800000c78002ff89700ea4f500054
:101100000a003a00380090000088a300070032006f
:1011100018019000a8009000480090001efd0700f4
:1011200019049800a8009000010c7800aff897000f
:101130000100fb004f04be000080fa000000060022
:10114000fe874700889fbe008a9fbe008c9fbe001e
:101150008e1f7800f0b79f000107780082bf9f00c4
:101160000000eb00a0b79f009e0237008006eb0056
:1011700050c2b30080cf5000090032000100fb00d4
:10118000ffb0970064ff0700e10f400095023200b6
:10119000afb097008100e800a1b79f00910237002f
:1011a0009e407800d0c2b30080cf50000c003200c7
:1011b00007003c006d40500080cf50000a00320014
:1011c0006b40400080cf50000e003a00080037000e
:1011d00000c3b30080cf50000a003a000600370079
:1011e0000d30a000050037000d00a00003003700ff
:1011f0000d10a000010037000d20a0000e07e80030
:10120000e7ff37000d18a300010032000d00a10018
:101210000d38a300010032000d20a1000100fb00e9
:1012200002fd2f0002004000e90f50000d003e00bb
:101230008001eb00c3b79f004fb29700ea20b800cf
:101240009e00fb000100400002004000c0b79f006c
:101250005e00fb0002004000e90f50000b003e0062
:10126000f5ff37008002eb00c5b79f00a0c2b300b6
:1012700080cf500005003a000fbe97004c00780068
:101280008cbf9f00c0b79f000e07e8008000eb00f6
:10129000b1b79f00e0c2b3009e4f100018003a00a3
:1012a0000de0a0008e00e80064405000914f100057
:1012b00002003200010778000c0037008fb9970058
:1012c0004302780083bf9f00b4b79f000e87e800f9
:1012d0000b003700bfb29700ea28b80001004000b9
:1012e00002004000b0b79f000e07e8009e00fb0020
:1012f00002fd2f0002804000e90f5000f5ff36008c
:10130000be407800e1d79f00c0c6b30080cf500038
:10131000220032000f003c006940500080cf500096
:101320007700320004003c000104e000310232008a
:101330006b4050000f00370040c6b30080cf500014
:10134000930032006540400080cf50008b003a008f
:101350008f00370030c7b30080cf50001a00320032
:1013600007003c006440500080cf50001100320064
:101370000040e80080cf500080003a000f003700a6
:1013800050c7b30080cf500080003200634040005f
:1013900080cf500079003a00090037000000280093
:1013a0000d48a30001003a0000012000808676006d
:1013b000d3ff37000d60a000750037000d50a0006e
:1013c0000d70a000720037000fbe97004c0078002f
:1013d0008cbf9f00000478000000e00001003a008c
:1013e000e83621008004eb00010037008104e800aa
:1013f00089007800088044001004e000fbff3a00f8
:101400003fb097000000e00003003200890f500059
:1014100001003100800478008000eb00e1af9f0004
:101420004fb19700890f51000200360009005100aa
:10143000e0af9f004368de00e10660001b003a0059
:101440000d06780009003700ffb097000002200069
:10145000b1fe0700e10f400003003200afb197007a
:101460008301e800a3b79f000c06e8006faa97006d
:10147000840f5600f4ff3a008082eb00e5af9f0036
:101480000a003700880078003100fb000104780072
:10149000ffb09700a0fe0700e10f400003003200fc
:1014a0002fb697000c06e800acb79f000900e900d2
:1014b00080047800e10f4000f2ff3a000006eb00e4
:1014c0000d00e0000a003a00c6013700ffb09700a7
:1014d0000002200090fe0700e10f400003003200f0
:1014e0002fb097000000e800a0b79f000c06e800ae
:1014f000efa89700810f5600f4ff3a00b9013700ba
:101500000fb997004200780082bf9f00cf80de00b5
:1015100001017800820178000205be000004be00cf
:101520000203be000002be004822de00482edd009d
:1015300004027600e4d79f000d48a3000a003200a1
:101540000404e00008003200e14f420006003200cf
:1015500071fd2f0001804700044878001840980072
:101560002900200002003700f0d79f00190020005a
:1015700072fd2f0002844700a1ff370063fd2f009a
:1015800003844700190020009dff37000d0cb300b5
:101590000d007800000cb20028003a000d00e000b9
:1015a00005003d000fba97004405be004404be008c
:1015b00084bf9f00140037000d48a3000b003200c9
:1015c0008fba97004500be0085bf9f004f89de009f
:1015d000cf91de000002be00020378008203780093
:1015e0000605be000404be00070037000fbe9700ca
:1015f0004c0078008cbf9f0000047800cfc4de0050
:10160000090578008a057800e00f5400e08f5c003f
:10161000e00f5d00e08f5d001f003d003d00b30066
:101620006000b8006011b8000804500089845800b8
:101630000a0559008b855900170037000d00e0009e
:1016400005003d000fb897004005be004004be00f5
:1016500080bf9f00100037000d48a3000700320034
:101660000fba97004400be0084bf9f006011b8000d
:101670000205be000004be00070037008fba9700c5
:101680004500780085bf9f00000478000900200015
:101690000a0020000b0020003fb697000c00e0007d
:1016a00007003a00e00f5400e08f5c00e00f5d009f
:1016b000e08f5d0002003a0010002000b0b79f00ec
:1016c0008d007800010cb200e1b79f0000042000fb
:1016d000808f50003000320003003c000100e00029
:1016e0000800320040003700000820006fb197006a
:1016f000800f510014003200000c2000800f5100b8
:1017000039003a0014c0b300e52c21000b0037006b
:101710000400fb004300dd00050040005001be0056
:101720004000be000040e10001c8e10002d0e1003d
:1017300003d8e1002b0039000442e800f44f5200c6
:10174000f3ff3a00270037000001200001002000cd
:101750006011b80014c0b3000040e10001c8e1000e
:1017600002d0e10003d8e1001e003900450020004e
:101770000000d0008180d2000281d2008381d2009b
:101780008502e900faff3a000442e800f04f5200f7
:10179000f1ff3a0013003700800020000100200014
:1017a0006011b80014c0b3000040e10001c8e100be
:1017b00002d0e10003d8e1000a0039003c0020001b
:1017c0000000d0008180d2000281d2008381d2004b
:1017d0000c06e900faff3a000442e800f54f520017
:1017e000f1ff3a00e4d79f00efd097000100fb0023
:1017f0003fb19700820f500002003d00e2d79f00ea
:1018000004003700bfb19700808f510001003d00f8
:10181000b0b79f004fb297000400e0000400320010
:1018200063806600020032000402e900c4b79f0032
:101830000de8a3000b003200cfb297003fb697002f
:101840008c8f520003003c000000eb00c0b79f00eb
:1018500004003700cfb097003fb19700828050005e
:10186000c1b79f00efd197000300fb000002eb001f
:10187000d4af9f00cfb29700808f52000200340097
:1018800000805200d0af9f000d28a3003600320028
:10189000e18066000d18a3000c003200d002200089
:1018a0000100e00001003a000080e900ffb097006d
:1018b00099fd0700e10f40000e0032002fb697009f
:1018c0000c06e800acb79f000a0037000100e000fa
:1018d00008003200ffb09700000220008efd0700d4
:1018e000e10f4000030032002fb097000000e80035
:1018f000a0b79f00dfa897000100e0000f003200b2
:101900000006eb00ffb097000003200082fd0700f7
:10191000e10f4000030032002fb197000201e80000
:10192000a2b79f000c06e800dfa99700830f5600be
:10193000f4ff3a000002eb00d4af9f00bfb2970063
:101940004328dd00612c21000100400090b79f007a
:101950004228dd006400500080b79f00e32eb800ed
:10196000fcaf9f00840037005fa897000000e000f4
:1019700011003200688066000f003a00000678000f
:10198000ffb097000002200063fd0700e10f400058
:1019900003003200afb097008100e800a1b79f00bc
:1019a0000c06e8005fa99700820f5600f4ff3a008a
:1019b0008001eb00d3af9f00e18066000d18a3000b
:1019c0000c003200d00220000100e00001003a00cb
:1019d0000080e900ffb097004ffd0700e10f4000d5
:1019e000d6ff32002fb297000402e800a4b79f0090
:1019f000d2ff37000100e000d0ff3200ffb09700b7
:101a00000002200044fd0700e10f4000cbff320040
:101a1000afb297008502e800a5b79f00c7ff370067
:101a200000042000efb09700808f50003200320099
:101a300003003c000100e000080032003f003700d6
:101a4000000820006fb19700800f51001100320094
:101a5000000c2000800f510038003a009fb1970021
:101a60003302be002303be000800be000a01be0010
:101a70007afc0700a4002000050020006033b800b5
:101a80007dfc070004c3b30004424000e4d79f007c
:101a90002a00370055372100d5b79f000d58a30005
:101aa00002003a0060382100d0b79f0014002000e7
:101ab000050020006033b8008fb097008100e90076
:101ac000050033000402d0008582d2000683d200d4
:101ad0008783d200f9ff37000800be000a01be006c
:101ae0005efc07006f0060005fb1970000004100de
:101af000104078001000370014002000050020007e
:101b00006033b8008c0178008301e90005003300e0
:101b10000402d0008582d2000683d2008783d200df
:101b2000f9ff37000800be000a01be004bfc0700a9
:101b3000674060000043b000e0d79f006fd297007d
:101b40000400fb00ffb09700f3fc0700e10f40002a
:101b500003003200afb297008502e800a5b79f00ee
:101b60001fb097006800500090b79f008fb097009b
:101b7000e480500081b79f0063065600d0ff2f001d
:101b80003fb197008010b8007faa97000000420084
:101b900063005000800f5600a1ff3a000d38a300eb
:101ba00010003200dfaa97000500e0000d003400ad
:101bb0000006eb00ffb0970000022000d6fc0700f3
:101bc000e10f4000030032002fb097000000e80052
:101bd000a0b79f000c06e800dfa89700810f560011
:101be000f4ff3a00be407800e1d79f000104e00016
:101bf0005efd3a002fb097004f0778004f06be00f9
:101c00004f05be004f04be00ef01b100000006000a
:020000040000fa
:10000800c8020000c8020000c8020000c8020000c0
:10001800c8020000c8020000c8020000c8020000b0
:10002800c8020000c8020000c8020000c8020000a0
:10003800b4160000c8020000c8020000c802000090
:10004800c8020000c8020000c802000034170000ff
:100058006a170000c8020000ca160000c8020000a3
:10006800c8020000c8020000c8020000c802000060
:10007800c8020000c8020000c8020000c802000050
:10008800c8020000c8020000c8020000c802000040
:10009800a4160000c8020000c8020000c802000040
:1000a800c8020000c8020000c8020000d216000002
:1000b800c8020000c8020000c8020000c802000010
:1000c800c8020000c8020000c8020000c802000000
:1000d800c8020000c8020000c8020000c8020000f0
:1000e800c8020000c8020000c8020000c8020000e0
:1000f800c8020000c8020000c8020000c8020000d0
:10010800c8020000c8020000c8020000c8020000bf
:10011800c8020000c8020000c8020000c8020000af
:10012800c8020000c8020000c8020000c80200009f
:10013800c8020000c8020000c8020000c80200008f
:10014800c8020000c8020000c8020000c80200007f
:10015800c8020000c8020000c8020000c80200006f
:10016800c8020000c8020000c8020000c80200005f
:10017800c8020000c8020000c8020000c80200004f
:10018800c8020000c8020000c8020000c80200003f
:10019800c8020000c8020000c8020000c80200002f
:1001a800c8020000c8020000c8020000c80200001f
:1001b800c8020000c8020000c8020000c80200000f
:1001c800c8020000c8020000c8020000c8020000ff
:1001d800c8020000c8020000c8020000c8020000ef
:1001e800c8020000c8020000c8020000c8020000df
:1001f800c8020000c8020000c8020000c8020000cf
:10020800c8020000c8020000c8020000c8020000be
:10021800c8020000c8020000c8020000c8020000ae
:10022800c8020000c8020000c8020000c80200009e
:10023800c8020000c8020000c8020000c80200008e
:10024800c8020000c8020000c8020000c80200007e
:10025800c8020000c8020000c8020000c80200006e
:020000040000fa
:101c10002564000020690000732000007468000043
:101c200065200000766100006c75000065200000f2
:101c3000726500006365000069760000656400005d
:101c4000206f00006e2000004d730000674200000e
:101c50007566000066200000256400000025000075
:101c600064200000697300002074000068650000b3
:101c700020760000616c0000756500002073000094
:101c8000656e0000742000006f6e0000204d0000a3
:101c900073670000427500006666000020250000a2
:101ca0006400000025730000206100006e640000e5
:101cb00020250000730a0000000a00000000000058
:020000040000fa
:101cc0000600fa00410107008000eb0020e0200040
:101cd0000108780001fe2f0000e0200001087800d4
:101ce0000000200001122400ce01070020e52000a2
:101cf00010407800644060000004e0000200320000
:101d000030e5200010407800006920009040780005
:101d100000ccb30000c060000004a00001692000f6
:101d20008048780081062000c00120008b02070057
:101d300020c0b30051000700406d200090407800a3
:101d400000c8b30000c06000c1c7b300014070000c
:101d5000416d200080487800e069200090407800c4
:101d600000ccb30000c06000e040b300e169200097
:101d70008048780000003700fd000700cad2bf008d
:101d80000004e000fcff32000000eb0010079800a8
:101d900070002000000f78000000eb002007980082
:101da0002c0037002e0090000000400001082000a9
:101db000808040000000210000804000100078007a
:101dc000ae009000811f7800801f780080e028001e
:101dd000801f78002023210031fc0700e687570090
:101de000309388002e009000800040000000210009
:101df0000080400010007800ae009000811f780045
:101e0000801f7800f0e22800801f78000020210069
:101e100023fc0700e687570020938800002021005c
:101e2000801f780020232100801f780020e52800f3
:101e3000801f780031fc0700e68757001e009000e5
:101e40000000e800100798002e0090000000e80055
:101e5000200798002e0090009e0f5000d1ff3900ff
:101e6000d0e52800801f780024fc07008f87e90058
:101e70000040eb00caf2b700bfff37000200fa00d3
:101e8000004f7800104020009040780080cfb300d1
:101e900000c060000024a0001140200080487800ad
:101ea000004020009040780000ceb30080c0600069
:101eb00000c8b30080cf5000f9ff3a000004a90029
:101ec0000164a800204120009040780070ccb3004d
:101ed00000c060000034a00021412000804878004c
:101ee00012e4a800304120009040780080cfb30079
:101ef00000c060000004a00031412000804878004c
:101f0000204120009040780080cfb30000c06000e6
:101f10003040b300214120008048780012c4a8005e
:101f20000041200010407800f2c3b30082406000fe
:101f300000412000014878000041200090407800d6
:101f400000ccb30000c060003041b300014120006c
:101f500080487800f1012c006040200001087800e2
:101f600030e4a80000432000104078008040780052
:101f70003140b300004320000148780033000700df
:101f80000004a8008041200090407800c0cfb3003a
:101f900080c060008041200001487800004320009c
:101fa0009000780000fe2f00808070000043200029
:101fb0000108780000442000100078007f006000d5
:101fc0000104200001007000014420008008780016
:101fd0003064a8004064a9000042200090407800ce
:101fe00000cfb30000c060000034a0000142200018
:101ff000804878001404a8000004a9009e407800de
:1020000067c0600067416000104020009040780089
:1020100080cfb30000c0600002407000114020007b
:102020008048780000402000104078000080fb00cd
:102030004500de008080fb001e80fb00808f50008a
:10204000f8ff3a000080fa00000006000000fa00e5
:1020500001cba90001aba80000b02000904078009f
:10206000f0ccb30000c0600001c2b30001407000ba
:1020700001b020008048780000b020009040780037
:10208000c0cfb30080c0600000b0200001487800dd
:102090006104200020b020000108780071002000b9
:1020a000e0b0200001087800204420008000780083
:1020b000c0b02000010878000000210080007800f6
:1020c00040b0200001087800000021008000780066
:1020d00060b020000108780001eba80011cba90036
:1020e00011aba90000b1200090407800f0ccb30003
:1020f00000c0600001c2b3000140700001b12000c7
:102100008048780000b1200090407800c0cfb30034
:1021100080c0600000b1200001487800210220004a
:1021200020b120000108780071002000e0b12000fb
:10213000010878000044200080007800c0b1200031
:1021400001087800000021008000780040b12000e4
:1021500001087800000021008000780060b12000b4
:102160000108780011eba8000080fa0000000600ca
:102170000000fa0080002000008088000000eb00d2
:10218000108088007000200020808800300020002f
:10219000308088001000200040808800400020002f
:1021a0005080880050002000608088003064a800c3
:1021b0000043200010407800684060000004e00008
:1021c000fbff3a000080fa00000006000000fa0061
:1021d000407420009040780000ceb30080c06000c2
:1021e00040742000014878004074200010407800be
:1021f000f2c3b300824060004074200001487800c0
:10220000607420009000780000e02f0000806000e3
:10221000a103200001007000617420008008780094
:1022200020742000104078000042b2000004e0005a
:10223000fbff32000080fa00000006000800fa00f0
:1022400020079800310798000000200001002400ba
:10225000008fbe008000eb00a01020000108780075
:1022600002002000034024002e009000be009000d9
:10227000fff807000001be0000ef2c0011cd240084
:102280002ff9070002002000030024006ef9070068
:102290000000e00001003c000a00370000002000c0
:1022a00001402400008fbe002011200090407800e3
:1022b00000c3b30080c070002011200001487800e6
:1022c0003b00370002002000033024002e00900065
:1022d000be009000e6f807000001be0000ef2c00f1
:1022e00011cd240016f9070002002000030024008d
:1022f00055f907000000e00001003c000c00370029
:102300000000200001302400008fbe0020112000ba
:1023100090407800f0ccb30000c0600001c2b30070
:102320000140700021112000804878002000370013
:1023300002002000031824002e009000be00900030
:10234000cbf807000001be0000ef2c0011cd2400e7
:10235000fbf8070002002000030024003af9070000
:102360000000e00001003c000b00370000002000ee
:1023700001182400008fbe0020112000904078003a
:10238000f0ccb30000c060000044a0002111200088
:102390008048780006003700201120009040780027
:1023a000f0ccb30080c0600020112000014878000c
:1023b0002e019000be0190001e00be00acf8070088
:1023c0000001be0000ef2c0011cd2400dcf8070056
:1023d0001ff9070080007800e01020000108780055
:1023e0001e01be000000200001f82300d4f8070001
:1023f000008fbe000108a9004084200090407800b2
:1024000080cfb30000c060006040b3004184200072
:10241000804878002108a80013e1a8000080fa0095
:10242000000006000800fa00200798003107980015
:102430000000200001002400008fbe008000eb009f
:1024400080112000010878000200200003402400d1
:102450002e009000be00900085f807000001be002d
:1024600000ef2c0011cd2400b5f807000200200079
:1024700003002400f4f807000000e00001003c0025
:102480000a0037000000200001402400008fbe0039
:10249000001220009040780000c3b30080c070009c
:1024a00000122000014878003b00370002002000a5
:1024b000033024002e009000be0090006cf807004e
:1024c0000001be0000ef2c0011cd24009cf8070095
:1024d0000200200003002400dbf807000000e000f9
:1024e00001003c000c0037000000200001302400f7
:1024f000008fbe000012200090407800f0ccb300a6
:1025000000c0600001c2b300014070000112200051
:1025100080487800200037000200200003182400c3
:102520002e009000be00900051f807000001be0090
:1025300000ef2c0011cd240081f8070002002000dc
:1025400003002400c0f807000000e00001003c0088
:102550000b0037000000200001182400008fbe008f
:102560000012200090407800f0ccb30000c0600062
:102570000044a000011220008048780006003700c7
:102580000012200090407800f0ccb30080c06000c2
:1025900000122000014878002e019000be0190003a
:1025a0001e00be0032f807000001be0000ef2c0044
:1025b00011cd240062f80700a5f80700800078001c
:1025c000c0112000010878001e01be00000020009c
:1025d00001f823005af80700008fbe000388a90005
:1025e0002388a800e08420009040780080cfb300ca
:1025f00000c060005040b300e184200080487800b3
:1026000021e1a8000080fa00000006000000fa00a6
:10261000a06a20009040780000c8b30000c06000ad
:10262000f1c2b30001407000a16a20008048780028
:102630008000eb00c0122000010878002cc1a80027
:10264000c01220009040780000c3b30080c070002a
:10265000c01220000148780031332300801220008e
:102660000108780005e8a90025e8a8002de1a800e8
:102670000080fa00000006000000fa00b06a2000a6
:102680009040780000c8b30000c06000e1c2b30011
:1026900001407000b16a2000804878008000eb00a3
:1026a000e0122000010878002ec1a800e0122000ee
:1026b0009040780000c3b30080c07000e01220009a
:1026c0000148780031332300a0122000010878006f
:1026d0000608a9002608a8002fe1a8000080fa003b
:1026e000000006000000fa00374ea900334ea90092
:1026f000314ea900d06a20009040780000c8b30095
:1027000000c0600091c4b30001407000d16a200095
:10271000804878008000eb00c0132000010878009a
:102720001100200080132000010878003c21a8003f
:102730000688a900a085200010407800804078001d
:102740007140b300a0852000014878002688a800c9
:102750003de1a8000080fa00000006000400fa0035
:10276000000f7800110798001e0090000074a1006f
:10277000004178000274a100406c20009040780075
:1027800000c8b30000c0600002407000416c20002f
:10279000804878008000eb000022200001087800cb
:1027a0008000eb0020222000010878002082a90090
:1027b00023c2a9002002a900002220009040780036
:1027c00090cfb30080c06000002220000148780054
:1027d0002062a90023a2a90023e2a90021e2a80007
:1027e0002342a800802220001e08780080222000ba
:1027f000100078000000e000050032008022200078
:102800009000780000102000808f500007003a00f0
:1028100020a2a80000222000104078000042b20050
:102820000004e000fbff3a000100370020a2a900ed
:102830000168a900508420009040780000c7b300d0
:1028400080c0700050842000014878002168a800f2
:102850000188a900608420009040780080cfb300f8
:1028600000c060005040b3006184200080487800c0
:102870002188a900007420001000780043000700a0
:102880008000eb0000742000010878000080fa004e
:10289000000006000400fa00004f780011079800bd
:1028a000f0c2b3009e4f10000c00340090c3b30080
:1028b0009e4f100009003c001e00900010007800a0
:1028c000ea01b8001e00fb008000410000fd2f005f
:1028d000808040001e009000010878001e00fb0070
:1028e0000080fa00000006000a00fa0020079800a5
:1028f000310798004207980010002000000f780070
:102900000000eb00100798001a003700be0090008e
:102910001e00900000805000800078002e00900083
:10292000008040008001e9004e0090001000780017
:10293000800078001e007800ea01b800110009004c
:102940008280d8008000fd001e017800110009007f
:102950000280d8000043b000804978001e00780053
:10296000ea00b800000f78001e0090000000e800a8
:1029700010079800be0090001e009000808f50004d
:10298000e2ff3e000080fa00000006000c00fa00a2
:10299000100798003022200010407800614060004d
:1029a0000004e000fbff32009e00900000002f00ba
:1029b000008060004c00de00000f780090002000d6
:1029c0009e0f100004003600700320001e0040001f
:1029d0005007980003003700000320001e0040004d
:1029e000500798005e009000000f78004022200001
:1029f0001e0878009e00900000f02000008060001b
:102a00004800de00000f7800900020009e0f1000ac
:102a100004003600700320001e00400040079800ac
:102a200003003700000320001e004000400798000c
:102a30004e009000000f7800402220001e08780011
:102a40009e009000000f2000008060004400de0027
:102a5000000f7800900020009e0f10000400360048
:102a6000700320001e00400030079800030037006c
:102a7000000320001e004000300798003e00900038
:102a8000000f7800402220001e0878001e009000f1
:102a90006f0f6000900020009e0f100004003600b1
:102aa000700320001e00400020079800030037003c
:102ab000000320001e004000200798002e00900018
:102ac000000f7800402220001e087800d10020006e
:102ad00040222000010878000080fa000000060073
:020000040000fa
:102ae000681200006000000082000000000b10006f
:102af0000b200b00300b40000b500b00600b7000e4
:102b00000b0c0b001c0b2c000b3c0b004c0b5c004b
:102b10000b6c0b007c0b0e000b1e0b002e0b3e00f3
:102b20000b4e0b005e0b6e000b7e0b00020b1200b7
:102b30000b220b00320b42000b520b00620b720097
:102b40000b040b00140b24000b340b00440b54003b
:102b50000b640b00740b08000b180b00280b3800db
:102b60000b480b00580b68000b780b0000de0000d0
:102b7000e00000008000000000df0000e000000036
:102b800080000000cc120000020000008200000063
:102b900000000000c81200000400000082000000d5
:102ba0000000000000000000001000000002000013
:102bb000800000000012000068000000800000009b
:102bc0009813000026000000820000009a13c00045
:102bd00013000000c0130900000000000200be0046
:102be00013000000be1306000201000000000000f8
:102bf00000000000000006000202000000000000cb
:102c0000be1300000600000080000000c413000096
:102c1000020000008200000001000000ce1200004f
:102c2000a000000082000000010000000000000081
:102c300000000a0000000000000000000064000026
:102c40000000000000000000e80300000000000099
:102c500000001000270000000000000000a0860017
:102c6000010000000000000040420f0000000000d2
:102c70000000800096980000000000000000e100c5
:102c8000f50500000000000000ca9a003b000000ab
:102c900000000000e40b5400020000000000e80007
:102ca00076481700000000000010a500d4e80000de
:102cb00000000000a0724e00180900000000400053
:102cc0007a10f3005a0000000080c600a47e8d0038
:102cd0000300000000c16f00f28623000000000026
:102ce0008a5d78004563010000006400a7b3b60068
:102cf000e00d000000e889000423c7008a000000fe
:102d00006e1300002a00000082000000286e75008b
:102d10006c6c290000303100323334003536370016
:102d2000383941004243440045460000303132000a
:102d3000333435003637380039616200636465002a
:082d4000660000000000000025
:020000040000fa
:102d4800801f78000000fa0010c0b300caf2b70074
:102d58000388a9000080fa004f00780000400600b0
:102d68003200f800881f78000820200098018800a9
:102d7800000000004f0478000000fa000088a90055
:102d88000080fa003200f900004006000000fa0056
:102d980001c8a9000080fa0000400600809fbe001c
:102da800821f78000000fa000468a90020e02000d3
:102db800104078000080fb004300de0061406000a6
:102dc80000c0ea0061406000614060004301dd002e
:102dd80020e020009040780070cfb30000c0600071
:102de8000240700021e0200080487800a0402000c8
:102df80010407800624060000004e00006003200e5
:102e080010c0b300caf2b7008000eb0000422000f7
:102e1800010878000a24a900a0402000104078008a
:102e2800614060000004e000010032000a04a900cb
:102e3800a040200010007800a0402000100078007a
:102e4800800078003100b300a0402000010878001d
:102e58000080fa004f0178004f00be0000400600d5
:102e68003600f800809fbe00829fbe00849fbe008f
:102e7800869fbe003200f8000020200090018800e4
:102e8800000000000200fa00602220001000780014
:102e9800c12c21007dfe0700004f78009e00fb003a
:102ea80040222000010878000168a9000080fa008b
:102eb8003200f9004f03be004f02be004f01be00b2
:102ec8004f00be003600f900004006003200f8004e
:102ed800881f780008202000980188000000000062
:102ee8004f0478000000fa000188a9000080fa0069
:102ef8003200f900004006000a00fa00000f7800ce
:102f08002147980022079800330798004407980043
:102f18001e007800800040008026210000804000cc
:102f2800100178002e4090000000fb00cd00dd006d
:102f38000002200000807000000978001e00780060
:102f480080004000802721000080400010007800a9
:102f5800be009000010878001e0078008000400044
:102f68008028210000804000900078007000200038
:102f7800800878001e007800800040008029210029
:102f88000080400010007800ae0090000108780032
:102f98001e00780080004000802a21000080400048
:102fa80010007800ce009000010878001e0078001c
:102fb8008000400080262100008040001001780039
:102fc8001e0078008000400080262100008040001c
:102fd8001000780090007800000028000080700041
:102fe800000978000080fa00000006000000fa00de
:102ff80000b0200090407800f0ccb30000c0600022
:1030080001c2b3000140700001b020008048780080
:1030180000b0200090407800c0cfb30000c060002e
:103028000014a00001b02000804878000030200083
:1030380080007800c0b0200001087800f10120006d
:10304800e0b0200001087800d100200020b0200066
:103058000108780001e02d0040b020000108780048
:103068000100200060b020000108780001f02d0068
:1030780080b020000108780001002000a0b02000e6
:10308800010878000088a9002088a80001eba800a2
:083098000080fa0000000600b0
:00000001FF
